:100000000C9448000C9465000C9465000C946500F9
:100010000C9465000C9465000C9465000C946500CC
:100020000C9465000C9465000C9465000C94E90335
:100030000C9424040C9465000C9422020C9465002A
:100040000C9465000C9465000C9465000C94E3001E
:100050000C946500036700A7009B00706964006151
:100060006463007368696D005B005F006300434D6B
:10007000443E3E0046756E6374696F6E206E6F7409
:1000800020666F756E640D0A00434D443E3E0000CD
:1000900011241FBECFE5D4E0DEBFCDBF10E0A0E647
:1000A000B0E0EAE0F8E102C005900D92AC36B1078D
:1000B000D9F711E0ACE6B0E001C01D92AA31B1075A
:1000C000E1F70E9461010C94030C0C9400008FEF87
:1000D0008BBB0895CF93DF9320917400309175000E
:1000E00089ED90E060E273E640E150E00E94FF0598
:1000F00088EE93E00E9487070E940E0789E00E9425
:100100000502BC01C0916C00D0916D00409174005B
:10011000509175008091690090916A000E942B06B1
:100120008C0F9D1F90936D0080936C0060E042E007
:100130000E943103DDCF813049F4FB018081918140
:100140000E94F00460E042E00E94310308950F93A2
:100150001F93DF93CF93CDB7DEB76E970FB6F894AA
:10016000DEBF0FBECDBF89E00E94050200D000D0E7
:1001700000D0EDB7FEB731968E010F5F1F4FADB7C0
:10018000BEB712961C930E93119720E630E033838E
:100190002283958384830E9422098DB79EB7069699
:1001A0000FB6F8949EBF0FBE8DBFC8010E945504C4
:1001B0006E960FB6F894DEBF0FBECDBFCF91DF9124
:1001C0001F910F9108951F920F920FB60F92112455
:1001D0002F938F939F932091E70024FF0EC080916F
:1001E000F1009091F20001969093F2008093F1005B
:1001F000009719F42F7E2093E7002091F30024FF4D
:100200000EC08091FD009091FE0001969093FE003B
:100210008093FD00009719F42F7E2093F300209126
:10022000FF0024FF0EC08091090190910A01019600
:1002300090930A0180930901009719F42F7E20936F
:10024000FF0020910B0124FF0EC0809115019091B9
:10025000160101969093160180931501009719F4E9
:100260002F7E20930B019F918F912F910F900FBEA6
:100270000F901F9018958CE761E00E943D0283B7B4
:10028000887F836083BF0E9499030E941F0587E5D2
:1002900095E00E94E40385EC93E00E945004379AB5
:1002A00080B7877F80BF87E061E00E94B0018FEF59
:1002B0009FEF60E00E94D7028EB5887F81608EBD7F
:1002C00008950E944A080E943B01789481E06AEDFB
:1002D00075E00E94620881E06AE670E00E946208B0
:1002E0001092E1008091E5009091E60021E08B30D2
:1002F000920718F087EE90E005C08091E50090919C
:10030000E6000C969093E6008093E500E091E5000E
:10031000F091E6008081809318018091180186FF9A
:10032000DFCF8091180187FDDBCF8091180184FF1A
:1003300004C08091180185FFD3CFCF93DF930E9433
:10034000E7060E94E2066091180168728FB7F89480
:100350007C91777D762B7C938FBFDF91CF91C0CF3F
:100360003D9A6295660F660F607C97B19F73962BDE
:1003700097B9877096B1987F982B96B9339A08955C
:1003800081708295880F807E96B19F7D982B96B95B
:100390006295660F607E80B78F71862B80BF08954F
:1003A00010926B0080B7877F80BF369A85B78F74B5
:1003B000806185BF9FB7789485B7806485BF01C091
:1003C000889580916B008823D9F385B78F7B85BF93
:1003D0009FBF08958F7197B1907E982B97B90E9417
:1003E000D00184B1282F85B1382F86E03695279526
:1003F0008A95E1F7C90108958F7197B1907E982B86
:1004000097B90E94D00185B108958F7197B1907E00
:10041000982B97B90E94D00184B1282F85B1382F2D
:1004200096E0369527959A95E1F731FD3C6FC90125
:1004300008958F7197B1907E982B97B90E94D00143
:1004400085B108951F920F920FB60F9211248F93CA
:1004500081E080936B008F910F900FBE0F901F90E3
:10046000189593B79F7B93BF93B7977F93BF817086
:1004700099B79E7F982B99BF089593B79F7B93BFA1
:1004800093B7986093BF8CBF6170660F89B78D7FFB
:10049000862B89BF0895BB9A8CBF6170660F89B7A0
:1004A0008D7F862B89BF43704295407F83B78F7CB9
:1004B000842B83BF089593B7906493BF93B79860DC
:1004C00093BF817099B79E7F982B99BF089593B77A
:1004D000906493BF93B7977F93BF817099B79E7FC6
:1004E000982B99BF0895BB9A8CBF6170660F89B72E
:1004F0008D7F862B89BF43704295407F83B78F7C69
:10050000842B83BF08959EB5977E9EBD9FB59C7F2B
:100510009FBD8170880F880F99B79B7F982B99BFDB
:1005200008952EB528612EBD2FB52C7F2FBD97BD08
:1005300086BD61706295660F607E89B78F7D862B60
:1005400089BF08952EB5277E28602EBD2FB52C7F3C
:100550002FBD9BBD8ABD61706295607F89B78F7E1C
:10056000862B89BF08958D9A8295880F880F807C8D
:100570009FB59F73982B9FBD08958C9A8370829529
:10058000807F9FB59F7C982B9FBD08959EB5977ED9
:1005900098609EBD83709FB59C7F982B9FBD6170B6
:1005A000660F660F89B78B7F862B89BF08952FB59D
:1005B0002C7F22602FBD2EB528612EBD97BD86BD34
:1005C00061706295660F607E89B78F7D862B89BFCB
:1005D00008952FB523602FBD2EB528612EBD9BBD7C
:1005E0008ABD61706295607F89B78F7E862B89BFD7
:1005F00008959EB5977E9EBD83709FB59C7F982B76
:100600009FBD6170660F660F89B78B7F862B89BF90
:1006100008959EB5977E90619EBD83709FB59C7F27
:10062000982B9FBD77BD66BD41704295440F407EBB
:1006300089B78F7D842B89BF08959EB5977E906181
:100640009EBD816083709FB59C7F982B9FBD7BBDB5
:100650006ABD41704295407F89B78F7E842B89BFE8
:1006600008958D9A9BBD8ABD61706295607F89B740
:100670008F7E862B89BF4295440F440F407C8FB5F7
:100680008F73842B8FBD08958C9A99BD88BD61703E
:10069000660F660F660F89B7877F862B89BF437009
:1006A0004295407F8FB58F7C842B8FBD0895382F66
:1006B0003170982F96959670282F26952695269519
:1006C00028709068482F4073922B942B90BD5298BD
:1006D000880F880F88709AB1977F982B9AB9932FBB
:1006E0009295907F8AB18F7E892B8AB9379533276F
:1006F00037958AB18F77832B8AB908959B01AC0116
:10070000605C7D4B804F9F4FF3E0660F771F881F23
:10071000991FFA95D1F7E4E0220F331F441F551FAC
:10072000EA95D1F70E94D1082150304029B930BD57
:1007300008950E94590782E0809376001092780015
:100740001092770081EB90E090937A00809379008B
:100750000E9460070E94590788E28093DC00109293
:10076000DE001092DD0084EB90E09093E000809337
:10077000DF000E94600760E875E280E090E00E9480
:100780007E038FE00E94570308951F93182F0E9445
:10079000590781E02091DD009091DC00291380E071
:1007A0008093E1000E9460078091E100882379F73F
:1007B0000E9459078CED90E0612F0E94C4070E94AF
:1007C0006007559A1F91089590937300809372006B
:1007D00008951F920F920FB60F9211242F933F93FB
:1007E0004F935F936F937F938F939F93AF93BF9339
:1007F000EF93FF936CB1209172003091730021153B
:10080000310539F0E0917200F0917300862F09955F
:100810000AC09091770080917600981721F086E7C2
:1008200090E00E94F407FF91EF91BF91AF919F91EB
:100830008F917F916F915F914F913F912F910F9089
:100840000FBE0F901F9018951F920F920FB60F9228
:1008500011242F933F934F935F936F937F938F93C5
:100860009F93AF93BF93EF93FF938CED90E00E9423
:1008700037088CB98091DD00882309F45598FF91E1
:10088000EF91BF91AF919F918F917F916F915F9108
:100890004F913F912F910F900FBE0F901F90189581
:1008A00090937100809370000895CF93DF93009729
:1008B00089F020917000309171002115310551F0BF
:1008C000EC0105C0E0917000F091710009958991EB
:1008D0008823C1F7DF91CF910895CF93DF93EC0187
:1008E000009789F08091700090917100009731F429
:1008F0000AC0E0917000F09171000995FE01219607
:1009000084918823B1F7DF91CF9108959C0180E015
:1009100001C08F5FF901E80FF11D90819923C9F79C
:1009200008959C0180E001C08F5FF901E80FF11D7F
:10093000E491EE23C9F70895DF92EF92FF920F93AF
:100940001F93182F092FF62EE72E0E948604D82E0B
:100950008F2D9E2D0E949104D81691F4C701E92F86
:10096000F82FC801A92FB82F05C08D919491319609
:10097000891731F48A2F811B8D15B8F381E001C0EE
:1009800080E01F910F91FF90EF90DF900895982FD6
:1009900091549A3148F090529A3140F09F5C81E036
:1009A0009A3028F080E0089581E0089581E008956C
:1009B000982F905381E09A3008F080E0089540E04D
:1009C00002C0EC934F5F242F30E0FC01E20FF31FD5
:1009D000E491DB01A20FB31FEE2399F71C92089557
:1009E000A0E0FC01EA0FF11D208120532A3028F0FD
:1009F00041E050E020E030E01EC0AF5FF2CFFC01EC
:100A0000EA0FF11D3197608170E060537040649F80
:100A1000F001659FF00D749FF00D11242E0F3F1F04
:100A2000BA01660F771FB3E0440F551FBA95E1F77F
:100A3000460F571FA150AA2311F7C901089510921C
:100A4000B3000895DF92EF92FF920F931F93CF931D
:100A5000DF937C01E4E5F0E0D490C0E0D0E003C097
:100A60002196CD15D8F48E01000F111FF801E85919
:100A7000FF4F25913491C701B9010E949C0488233E
:100A800079F30B5A1F4FF8012591349180916F0033
:100A90006DEA70E0F901099581E001C080E0DF9125
:100AA000CF911F910F91FF90EF90DF90089590915B
:100AB000B30090FD5EC08D3031F0803201F18A309C
:100AC00009F043C04CC091609093B300E0916E0078
:100AD000F0E0E558FF4F108280916F00E82FF0E0C2
:100AE000EE0FFF1FE555FF4F0190F081E02D908143
:100AF000992309F05EC0815080936F000895209182
:100B00006E00222309F455C0E22FF0E0E558FF4FB4
:100B1000DF0111979C91992309F44BC010822F5F3C
:100B200020936E0090916F009230C8F4E92FF0E0AE
:100B3000EE0FFF1FE355FF4F30E025583F4F318345
:100B400020839F5F90936F000AC090916E00E92F01
:100B5000F0E0E558FF4F80839F5F90936E00909187
:100B60006E00913331F48091B30082608093B300C2
:100B700008958D30F1F48091B30081FF1AC0816037
:100B80008093B300E0916E00F0E0E558FF4F1082D3
:100B900080916F00E82FF0E0EE0FFF1FE555FF4F4B
:100BA0000190F081E02D9081992319F48150809378
:100BB0006F00089589E890E00E946D040E94360756
:100BC0008091B30081700E9464078BE790E00E94DF
:100BD0002205882321F484E790E00E946D0410929E
:100BE0006E0010926F000E9459078091B3008E7FB3
:100BF0008093B3000E9460078EE690E0DDCFCF9334
:100C0000DF93FB01E9011A821B821C821D8219827B
:100C100018829F838E83798768875B874A87BC01A8
:100C20006F5F7F4F8FEF9FE70E94BE087D876C87C5
:100C300031969F01442737FD4095542F6FEF7FEF8A
:100C40008FEF9FE30E94F3082E873F87488B598BD5
:100C5000DF91CF910895EF92FF920F931F93CF935F
:100C6000DF938B01EA01BC01601B710B8C859D85B4
:100C70008617970784F0909581959F4F681779079D
:100C80007CF08E819F81689F7001699FF00C789F36
:100C9000F00C112409C03FEFE32E3FE7F32E04C010
:100CA00021E0E22E20E8F22E882777FD8095982F0C
:100CB0002A813B814C815D81620F731F841F951FC8
:100CC0002E853F85488959892617370748075907D0
:100CD0004CF42A833B834C835D838FEF9FEFAFEF10
:100CE000BFE323C050954095309521953F4F4F4F1E
:100CF0005F4F62177307840795074CF42A833B8381
:100D00004C835D8381E090E0A0E0B0EC0EC06A838C
:100D10007B838C839D8328853985442737FD4095C7
:100D2000542F0E949F08DC01CB0128813981201BB0
:100D3000310B6A857B85269FA001279F500D369F2A
:100D4000500D1124198308830027F7FC0095102FFC
:100D5000662757FD6095762FE40EF51E061F171FB8
:100D6000E80EF91E0A1F1B1FC801B70120E230E080
:100D700040E050E00E94F308213080E838078FEF10
:100D800048078FEF580724F421E030E84FEF5FEF7A
:100D9000203080E8380780E0480780E0580724F0DA
:100DA0002FEF3FE740E050E0C901DF91CF911F9165
:100DB0000F91FF90EF900895FC011282138214822C
:100DC00015820895A091E500B091E60008956DB7F1
:100DD0006093E2006EB76093E3000E94E2066D91BB
:100DE000609318016D917D91CD91DD91D7FF02C087
:100DF000CDB7DEB79FB7F894CDBFDEBF9FBF6F936F
:100E00007F936D91762F662341F089918D9189931F
:100E10007A95E1F76395C61BD10908950E94E20611
:100E20006D916F917F917D936D93CD93DD938091C3
:100E300018018860809318010C941E071C92709111
:100E4000E2007C1B725041F0753030F47D93699163
:100E500069916D937A95E1F76091E2007091E300FA
:100E60008FB7F8946DBF7EBF8FBF089580E00C945C
:100E70003C0781E00C943C0760911801677F64FF98
:100E80006F7D80FD606260931801809117018E7FF5
:100E9000809317010E94E2066D916F917F917D937F
:100EA0006D93CD93DD937F936F9308958FB7F894EF
:100EB00008956FB76093E400F89408958FBF089584
:100EC0006091E4006FBF08950E94E20660911701EF
:100ED0006F7D6093170170911801882359F07F7E10
:100EE000709318010E9459079C919F7E9C930E94C9
:100EF0006007089574FF75FF04C060626093170176
:100F00000895AB5FBF4F6F917F910C941E07CF93F5
:100F1000DF93EC010E945907809118018F7D809327
:100F20001801E091E500F091E60080818F7E8083DA
:100F30000E946007209729F1E091E500F091E6001A
:100F4000D095C195DF4FD387C2870E945907E091A2
:100F5000E500F091E600808188608083E091E50003
:100F6000F091E6008081806180830E94600780911B
:100F70001801806180931801809118018860809326
:100F80001801DF91CF910895FC0150817181428158
:100F9000809117018E7F80931701842F90E057175F
:100FA00081F4A381B481A80FB91F6C934F5F4517DB
:100FB00009F440E080911701816080931701752F3B
:100FC0000FC0870F911D252F30E08217930710F077
:100FD000821B930BA381B481A80FB91F6C937F5F11
:100FE0005083718342830895FC0150817181428155
:100FF000809117018E7F80931701842F90E05717FF
:1010000081F4A381B481A80FB91F6C934F5F45177A
:1010100009F440E080911701816080931701752FDA
:101020000FC0870F911D252F30E08217930710F016
:10103000821B930BA381B481A80FB91F6C937F5FB0
:101040005083718342830895FC0121819281892F0D
:101050008F5F3081831708F080E0215021838283E5
:101060000380F481E02DE90FF11D80810895FC01DA
:1010700021819281892F8F5F3081831708F080E072
:101080002150218382830380F481E02DE90FF11D3B
:101090008081089510921701EBE0F1E0F093E600F3
:1010A000E093E500B49780818F7B808384858F7B7C
:1010B0008487808D8F7B808F80910B018F7B8093C5
:1010C0000B010895DF93CF930F92CDB7DEB78983DD
:1010D000809117018D7F8093170180E0E7EEF0E0AB
:1010E000908196FD1CC08093E100298128642983AA
:1010F000728361831386128620838091E50090912C
:10110000E600E817F90711F42093180180E090E851
:10111000948383831582809117018D7F0AC08F5F2E
:10112000843010F43C96DCCF8093E100809117016D
:101130008260809317010F90CF91DF910895629F95
:10114000D001739FF001829FE00DF11D649FE00DBF
:10115000F11D929FF00D839FF00D749FF00D659F20
:10116000F00D9927729FB00DE11DF91F639FB00D1F
:10117000E11DF91FBD01CF011124089597FB092E30
:1011800007260AD077FD04D049D006D000201AF4F3
:10119000709561957F4F0895F6F7909581959F4FD3
:1011A0000895A1E21A2EAA1BBB1BFD010DC0AA1FA8
:1011B000BB1FEE1FFF1FA217B307E407F50720F0C0
:1011C000A21BB30BE40BF50B661F771F881F991F3B
:1011D0001A9469F760957095809590959B01AC0184
:1011E000BD01CF01089597FB092E05260ED057FDAE
:1011F00004D0D7DF0AD0001C38F4509540953095C4
:1012000021953F4F4F4F5F4F0895F6F7909580958A
:10121000709561957F4F8F4F9F4F0895AA1BBB1B01
:1012200051E107C0AA1FBB1FA617B70710F0A61BE6
:10123000B70B881F991F5A95A9F780959095BC0107
:10124000CD010895AEE0B0E0E8E2F9E00C94DA0BED
:101250000D891E8986E08C831A8309838FEF9FE7AF
:101260009E838D839E01275E3F4FCE0101966F893D
:10127000788DA9010E944509EF81F885E00FF11FE3
:1012800010822E96E4E00C94F60BACE0B0E0EBE4B8
:10129000F9E00C94CC0B6C011B018A01FC01178254
:1012A0001682838181FFD1C12E010894411C511CFB
:1012B000F6019381F10193FD859193FF81911F01C7
:1012C000882309F4BEC1853239F493FD859193FFDB
:1012D00081911F01853229F490E0B6010E94420BF2
:1012E000E7CFEE24FF2420E02032B0F48B3269F007
:1012F0008C3228F4803251F0833271F40BC08D327D
:1013000039F0803349F421602CC02260246029C068
:10131000286027C0206125C027FD2CC0382F3053FE
:101320003A3098F426FF08C08E2D880FE82EEE0C78
:10133000EE0CE80EE30E15C08F2D880FF82EFF0C73
:10134000FF0CF80EF30E20620CC08E3221F426FD45
:1013500078C1206406C08C3611F4206802C088363B
:1013600049F4F10193FD859193FF81911F01882339
:1013700009F0BACF982F9554933018F090529330CB
:1013800028F40C5F1F4FFFE3F9830DC0833631F063
:10139000833771F0833509F060C022C0F801808185
:1013A00089830E5F1F4F420171E0A72EB12C16C03A
:1013B00062E0662E712C600E711EF80180809180B3
:1013C00026FF03C06E2D70E002C06FEF7FEFC401F7
:1013D0002C870E94370B5C0183012C852F7717C067
:1013E00052E0652E712C600E711EF8018080918094
:1013F00026FF03C06E2D70E002C06FEF7FEFC401C7
:101400002C870E942C0B5C012C852068830123FD16
:1014100020C008C080E290E0B6012C870E94420BF9
:10142000FA942C858F2D90E0A816B90698F311C078
:10143000F40127FD859127FF81914F0190E0B601CE
:101440002C870E94420B2C85F110FA940894A10875
:10145000B108A114B10461F7F1C0843611F08936E6
:1014600049F527FF08C0F80160817181828193816D
:101470000C5F1F4F09C0F80160817181882777FDDB
:101480008095982F0E5F1F4F4FE6B42EB22297FF24
:1014900009C090958095709561957F4F8F4F9F4FB4
:1014A000F0E8BF2AA2012AE030E00E946E0B782EFD
:1014B000741845C0853731F43FEEB32EB2222AE0CE
:1014C00030E025C099EFB92EB2228F36C1F08037B7
:1014D00020F4883509F0B5C00DC0803721F0883779
:1014E00009F0AFC002C020E1B22AB4FE0BC084E014
:1014F000B82A08C0B4FE09C0E6E0BE2A06C028E04B
:1015000030E005C020E130E002C020E132E0B7FE6B
:1015100008C0F80160817181828193810C5F1F4F47
:1015200007C0F8016081718180E090E00E5F1F4F7D
:10153000A2010E946E0B782E7418FFE7BF22B6FE40
:101540000BC02EEFB2227E1438F4B4FE07C0B2FCFA
:1015500005C08FEEB82202C0A72C01C0AE2C8B2D87
:1015600090E0B4FE0DC0FE01E70DF11D2081203397
:1015700019F4E9EEBE2209C0A394B2FE06C004C06D
:1015800086789070009709F0A3948B2C9924B3FC73
:1015900014C0B0FE0FC0AF1428F4E72CEF0CEA180B
:1015A000AF2C08C0E72C06C080E290E0B6010E9494
:1015B000420BA394AF14C0F304C0AF1410F4FA1894
:1015C00001C0FF2484FE0FC080E390E0B6010E94BA
:1015D000420B82FE1FC081FE03C088E590E010C070
:1015E00088E790E00DC0C40186789070009791F074
:1015F00081FC02C080E201C08BE2B7FC8DE290E08A
:10160000B6010E94420B06C080E390E0B6010E9442
:10161000420BEA947E14C0F37A94F201E70DF11DB7
:10162000808190E0B6010E94420B7720A9F706C0A6
:1016300080E290E0B6010E94420BFA94FF20C1F7CD
:1016400037CEF6012681378102C02FEF3FEFC90167
:101650002C96E2E10C94E80BFC010590615070407F
:101660000110D8F7809590958E0F9F1F0895FC016B
:101670006150704001900110D8F7809590958E0FC1
:101680009F1F08950F931F93CF93DF938C01EB015E
:101690008B8181FF1BC082FF0DC02E813F818C8119
:1016A0009D812817390764F4E881F9810193F98352
:1016B000E88306C0E885F985802F0995009731F405
:1016C0008E819F8101969F838E8302C00FEF1FEF53
:1016D000C801DF91CF911F910F910895FA01AA27B8
:1016E000283051F1203181F1E8946F936E7F6E5F65
:1016F0007F4F8F4F9F4FAF4FB1E03ED0B4E03CD013
:10170000670F781F891F9A1FA11D680F791F8A1FF5
:10171000911DA11D6A0F711D811D911DA11D20D05C
:1017200009F468943F912AE0269F11243019305D16
:101730003193DEF6CF010895462F4770405D419307
:10174000B3E00FD0C9F7F6CF462F4F70405D4A3354
:1017500018F0495D31FD4052419302D0A9F7EACF1C
:10176000B4E0A6959795879577956795BA95C9F74B
:1017700000976105710508959B01AC010A2E06943E
:101780005795479537952795BA95C9F7620F731FF7
:10179000841F951FA01D08952F923F924F925F9234
:1017A0006F927F928F929F92AF92BF92CF92DF9271
:1017B000EF92FF920F931F93CF93DF93CDB7DEB7D6
:1017C000CA1BDB0B0FB6F894DEBF0FBECDBF09946A
:1017D0002A88398848885F846E847D848C849B84C1
:1017E000AA84B984C884DF80EE80FD800C811B81CF
:1017F000AA81B981CE0FD11D0FB6F894DEBF0FBEFE
:0A180000CDBFED010895F894FFCF6D
:0C180A006164633D25640D0A009001013B
:00000001FF
